{
  "contractName": "FidelTestBank",
  "abi": [
    {
      "inputs": [],
      "stateMutability": "nonpayable",
      "type": "constructor"
    },
    {
      "anonymous": false,
      "inputs": [
        {
          "indexed": true,
          "internalType": "address",
          "name": "user",
          "type": "address"
        },
        {
          "indexed": false,
          "internalType": "uint256",
          "name": "amount",
          "type": "uint256"
        },
        {
          "indexed": false,
          "internalType": "uint256",
          "name": "index",
          "type": "uint256"
        },
        {
          "indexed": false,
          "internalType": "uint256",
          "name": "timestamp",
          "type": "uint256"
        }
      ],
      "name": "Staked",
      "type": "event"
    },
    {
      "inputs": [
        {
          "internalType": "address",
          "name": "_staker",
          "type": "address"
        }
      ],
      "name": "hasStake",
      "outputs": [
        {
          "components": [
            {
              "internalType": "uint256",
              "name": "total_amount",
              "type": "uint256"
            },
            {
              "components": [
                {
                  "internalType": "address",
                  "name": "user",
                  "type": "address"
                },
                {
                  "internalType": "uint256",
                  "name": "amount",
                  "type": "uint256"
                },
                {
                  "internalType": "uint256",
                  "name": "since",
                  "type": "uint256"
                },
                {
                  "internalType": "uint256",
                  "name": "claimable",
                  "type": "uint256"
                }
              ],
              "internalType": "struct FidelTestBank.Stake[]",
              "name": "stakes",
              "type": "tuple[]"
            }
          ],
          "internalType": "struct FidelTestBank.StakingSummary",
          "name": "",
          "type": "tuple"
        }
      ],
      "stateMutability": "view",
      "type": "function"
    }
  ],
  "bytecode": "0x608060405261271060025534801561001657600080fd5b506000600181600181540180825580915050039060005260206000209050506106bc806100446000396000f3fe608060405234801561001057600080fd5b506004361061002b5760003560e01c8063e73e14bf14610030575b600080fd5b61004a6004803603810190610045919061032c565b610060565b60405161005791906104c2565b60405180910390f35b6100686102af565b6000806040518060400160405280600081526020016000600160008873ffffffffffffffffffffffffffffffffffffffff1673ffffffffffffffffffffffffffffffffffffffff16815260200190815260200160002054815481106100d0576100cf6104e4565b5b9060005260206000209060020201600101805480602002602001604051908101604052809291908181526020016000905b828210156101a757838290600052602060002090600402016040518060800160405290816000820160009054906101000a900473ffffffffffffffffffffffffffffffffffffffff1673ffffffffffffffffffffffffffffffffffffffff1673ffffffffffffffffffffffffffffffffffffffff168152602001600182015481526020016002820154815260200160038201548152505081526020019060010190610101565b50505050815250905060005b8160200151518110156102585760006101e9836020015183815181106101dc576101db6104e4565b5b602002602001015161026d565b90508083602001518381518110610203576102026104e4565b5b602002602001015160600181815250508260200151828151811061022a576102296104e4565b5b602002602001015160200151846102419190610542565b9350506001816102519190610542565b90506101b3565b50818160000181815250508092505050919050565b60006002548260200151610e1084604001514261028a9190610598565b61029491906105fb565b61029e919061062c565b6102a891906105fb565b9050919050565b604051806040016040528060008152602001606081525090565b600080fd5b600073ffffffffffffffffffffffffffffffffffffffff82169050919050565b60006102f9826102ce565b9050919050565b610309816102ee565b811461031457600080fd5b50565b60008135905061032681610300565b92915050565b600060208284031215610342576103416102c9565b5b600061035084828501610317565b91505092915050565b6000819050919050565b61036c81610359565b82525050565b600081519050919050565b600082825260208201905092915050565b6000819050602082019050919050565b6103a7816102ee565b82525050565b6080820160008201516103c3600085018261039e565b5060208201516103d66020850182610363565b5060408201516103e96040850182610363565b5060608201516103fc6060850182610363565b50505050565b600061040e83836103ad565b60808301905092915050565b6000602082019050919050565b600061043282610372565b61043c818561037d565b93506104478361038e565b8060005b8381101561047857815161045f8882610402565b975061046a8361041a565b92505060018101905061044b565b5085935050505092915050565b600060408301600083015161049d6000860182610363565b50602083015184820360208601526104b58282610427565b9150508091505092915050565b600060208201905081810360008301526104dc8184610485565b905092915050565b7f4e487b7100000000000000000000000000000000000000000000000000000000600052603260045260246000fd5b7f4e487b7100000000000000000000000000000000000000000000000000000000600052601160045260246000fd5b600061054d82610359565b915061055883610359565b9250827fffffffffffffffffffffffffffffffffffffffffffffffffffffffffffffffff0382111561058d5761058c610513565b5b828201905092915050565b60006105a382610359565b91506105ae83610359565b9250828210156105c1576105c0610513565b5b828203905092915050565b7f4e487b7100000000000000000000000000000000000000000000000000000000600052601260045260246000fd5b600061060682610359565b915061061183610359565b925082610621576106206105cc565b5b828204905092915050565b600061063782610359565b915061064283610359565b9250817fffffffffffffffffffffffffffffffffffffffffffffffffffffffffffffffff048311821515161561067b5761067a610513565b5b82820290509291505056fea264697066735822122072f60709b0758b2bfa6f0b023ea4ed0d647c0464be8e8c73f1ca9bb27ff91b5764736f6c634300080d0033",
  "immutableReferences": {},
  "source": "// SPDX-License-Identifier: MIT\npragma solidity ^0.8.4;\n\n/**\n* @notice FidelTestBank is a contract who is ment to be inherited by other contract that wants Staking capabilities\n*/\ncontract FidelTestBank {\n\n\n    /**\n    * @notice Constructor since this contract is not ment to be used without inheritance\n    * push once to stakeholders for it to work proplerly\n     */\n    constructor() {\n        // This push is needed so we avoid index 0 causing bug of index-1\n        stakeholders.push();\n    }\n    /**\n     * @notice\n     * A stake struct is used to represent the way we store stakes, \n     * A Stake will contain the users address, the amount staked and a timestamp, \n     * Since which is when the stake was made\n     */\n    struct Stake{\n        address user;\n        uint256 amount;\n        uint256 since;\n        // This claimable field is new and used to tell how big of a reward is currently available\n        uint256 claimable;\n    }\n    /**\n    * @notice Stakeholder is a staker that has active stakes\n     */\n    struct Stakeholder{\n        address user;\n        Stake[] address_stakes;\n        \n    }\n     /**\n     * @notice\n     * StakingSummary is a struct that is used to contain all stakes performed by a certain account\n     */ \n     struct StakingSummary{\n         uint256 total_amount;\n         Stake[] stakes;\n     }\n\n    /**\n    * @notice \n    *   This is a array where we store all Stakes that are performed on the Contract\n    *   The stakes for each address are stored at a certain index, the index can be found using the stakes mapping\n    */\n    Stakeholder[] internal stakeholders;\n    /**\n    * @notice \n    * stakes is used to keep track of the INDEX for the stakers in the stakes array\n     */\n    mapping(address => uint256) internal stakes;\n    /**\n    * @notice Staked event is triggered whenever a user stakes tokens, address is indexed to make it filterable\n     */\n     event Staked(address indexed user, uint256 amount, uint256 index, uint256 timestamp);\n\n    /**\n     * @notice\n      rewardPerHour is 1000 because it is used to represent 0.0001, since we only use integer numbers\n      This will give users 0.01% reward for each staked token / H\n     */\n    uint256 internal rewardPerHour = 10000;\n\n    /**\n    * @notice _addStakeholder takes care of adding a stakeholder to the stakeholders array\n     */\n    function _addStakeholder(address staker) internal returns (uint256){\n        // Push a empty item to the Array to make space for our new stakeholder\n        stakeholders.push();\n        // Calculate the index of the last item in the array by Len-1\n        uint256 userIndex = stakeholders.length - 1;\n        // Assign the address to the new index\n        stakeholders[userIndex].user = staker;\n        // Add index to the stakeHolders\n        stakes[staker] = userIndex;\n        return userIndex; \n    }\n\n    /**\n    * @notice\n    * _Stake is used to make a stake for an sender. It will remove the amount staked from the stakers account and place those tokens inside a stake container\n    * StakeID \n    */\n    function _stake(uint256 _amount) internal{\n        // Simple check so that user does not stake 0 \n        require(_amount > 0, \"Cannot stake nothing\");\n        \n\n        // Mappings in solidity creates all values, but empty, so we can just check the address\n        uint256 index = stakes[msg.sender];\n        // block.timestamp = timestamp of the current block in seconds since the epoch\n        uint256 timestamp = block.timestamp;\n        // See if the staker already has a staked index or if its the first time\n        if(index == 0){\n            // This stakeholder stakes for the first time\n            // We need to add him to the stakeHolders and also map it into the Index of the stakes\n            // The index returned will be the index of the stakeholder in the stakeholders array\n            index = _addStakeholder(msg.sender);\n        }\n\n        // Use the index to push a new Stake\n        // push a newly created Stake with the current block timestamp.\n        stakeholders[index].address_stakes.push(Stake(msg.sender, _amount, timestamp,0));\n        // Emit an event that the stake has occured\n        emit Staked(msg.sender, _amount, index,timestamp);\n    }\n\n    /**\n      * @notice\n      * calculateStakeReward is used to calculate how much a user should be rewarded for their stakes\n      * and the duration the stake has been active\n     */\n      function calculateStakeReward(Stake memory _current_stake) internal view returns(uint256){\n          // First calculate how long the stake has been active\n          // Use current seconds since epoch - the seconds since epoch the stake was made\n          // The output will be duration in SECONDS ,\n          // We will reward the user 0.01% per Hour So thats 0.01% per 3600 seconds\n          // the alghoritm is  seconds = block.timestamp - stake seconds (block.timestap - _stake.since)\n          // hours = Seconds / 3600 (seconds /3600) 3600 is an variable in Solidity names hours\n          // we then multiply each token by the hours staked , then divide by the rewardPerHour rate \n          return (((block.timestamp - _current_stake.since) / 1 hours) * _current_stake.amount) / rewardPerHour;\n      }\n\n    /**\n     * @notice\n     * withdrawStake takes in an amount and a index of the stake and will remove tokens from that stake\n     * Notice index of the stake is the users stake counter, starting at 0 for the first stake\n     * Will return the amount to MINT onto the acount\n     * Will also calculateStakeReward and reset timer\n    */\n     function _withdrawStake(uint256 amount, uint256 index) internal returns(uint256){\n         // Grab user_index which is the index to use to grab the Stake[]\n        uint256 user_index = stakes[msg.sender];\n        Stake memory current_stake = stakeholders[user_index].address_stakes[index];\n        require(current_stake.amount >= amount, \"Staking: Cannot withdraw more than you have staked\");\n\n         // Calculate available Reward first before we start modifying data\n         uint256 reward = calculateStakeReward(current_stake);\n         // Remove by subtracting the money unstaked \n         current_stake.amount = current_stake.amount - amount;\n         // If stake is empty, 0, then remove it from the array of stakes\n         if(current_stake.amount == 0){\n             delete stakeholders[user_index].address_stakes[index];\n         }else {\n             // If not empty then replace the value of it\n             stakeholders[user_index].address_stakes[index].amount = current_stake.amount;\n             // Reset timer of stake\n            stakeholders[user_index].address_stakes[index].since = block.timestamp;    \n         }\n\n         return amount+reward;\n     }\n\n     /**\n     * @notice\n     * hasStake is used to check if a account has stakes and the total amount along with all the seperate stakes\n     */\n    function hasStake(address _staker) public view returns(StakingSummary memory){\n        // totalStakeAmount is used to count total staked amount of the address\n        uint256 totalStakeAmount; \n        // Keep a summary in memory since we need to calculate this\n        StakingSummary memory summary = StakingSummary(0, stakeholders[stakes[_staker]].address_stakes);\n        // Itterate all stakes and grab amount of stakes\n        for (uint256 s = 0; s < summary.stakes.length; s += 1){\n           uint256 availableReward = calculateStakeReward(summary.stakes[s]);\n           summary.stakes[s].claimable = availableReward;\n           totalStakeAmount = totalStakeAmount+summary.stakes[s].amount;\n       }\n       // Assign calculate amount to summary\n       summary.total_amount = totalStakeAmount;\n        return summary;\n    }\n\n}",
  "sourcePath": "/Users/mac-eladio/Desktop/Blockchain_Dev/Tests/Stakeable-ERC20/contracts/FidelTestBank.sol",
  "compiler": {
    "name": "solc",
    "version": "0.8.13+commit.abaa5c0e.Emscripten.clang"
  },
  "schemaVersion": "3.4.4",
  "updatedAt": "2022-04-17T09:45:46.464Z",
  "devdoc": {
    "kind": "dev",
    "methods": {},
    "version": 1
  },
  "userdoc": {
    "events": {
      "Staked(address,uint256,uint256,uint256)": {
        "notice": "Staked event is triggered whenever a user stakes tokens, address is indexed to make it filterable"
      }
    },
    "kind": "user",
    "methods": {
      "constructor": {
        "notice": "Constructor since this contract is not ment to be used without inheritance push once to stakeholders for it to work proplerly"
      },
      "hasStake(address)": {
        "notice": "hasStake is used to check if a account has stakes and the total amount along with all the seperate stakes"
      }
    },
    "notice": "FidelTestBank is a contract who is ment to be inherited by other contract that wants Staking capabilities",
    "version": 1
  }
}